:1000000000180020C1000000FD090000C109000027
:10001000C1090000C1090000C1090000C1090000B8
:10002000C1090000C1090000C1090000FD0900006C
:10003000FD090000C1090000912300009923000080
:10004000FD090000FD090000FD090000FD09000098
:10005000FD090000FD090000FD090000FD09000088
:10006000FD090000FD090000FD090000FD09000078
:100070000D0E0000D913000031150000FD0900002D
:10008000FD090000FD090000FD090000FD09000058
:10009000FD090000FD090000FD090000FD09000048
:1000A00005180000FD090000FD090000FD09000021
:1000B000FD090000FD090000FD090000FD09000028
:1000C000F8B500F09FFC484B484A1A60484B494A33
:1000D0001A60494B494A1A600823494A1178194263
:1000E00002D011780B4313702A22464B46481A70EF
:1000F000464BC11E00228B4203D303331A1A9208C7
:100100009200434902F088FB4248434BC11E002243
:10011000994203D803331A1A92089200002102F080
:1001200033FB3E4CC02220003D4902F075FB032604
:100130000022802017003B4993089B005B18FF2199
:100140003740FF00B9408C46654619680132A94323
:100150000500BD4029431960202AEBD1324B6A3299
:100160001C60324B1A70324B663A5A707C321A70ED
:100170009E3A99791142FCD0102299791142FCD112
:100180000C219A790A40082AFBD1053A1A713D32AE
:100190005A71203A99791142FCD040229979114242
:1001A000FCD0244A2449116020220C211A709A792B
:1001B0000A400C2AFBD1214B214A1A60214B224ACA
:1001C0001A600022214B1A60214B07321A60214B22
:1001D000214A1A6062B600F0D7FC00F019FC02F068
:1001E000F7FA00F0E5FBFEE734800440300004F04D
:1001F00038800440823F00003C8004400100000F32
:1002000002D0074000E0074020FDFF1FC8FEFF1F8F
:10021000342C0000C8FEFF1FE804002000F9FF1F77
:100220000000000000E400E008ED00E0005006409F
:100230000040064044800440000001100480044057
:10024000C000050514E000E07FBB000018E000E0FE
:1002500010E000E020ED00E000002020FFFFFFFFA5
:10026000FFFFFFFFFFFFFFFFFFFFFFFFFFFFFFFF9E
:10027000FFFFFFFFFFFFFFFFFFFFFFFFFFFFFFFF8E
:10028000FFFFFFFFFFFFFFFFFFFFFFFFFFFFFFFF7E
:10029000FFFFFFFFFFFFFFFFFFFFFFFFFFFFFFFF6E
:1002A000FFFFFFFFFFFFFFFFFFFFFFFFFFFFFFFF5E
:1002B000FFFFFFFFFFFFFFFFFFFFFFFFFFFFFFFF4E
:1002C000FFFFFFFFFFFFFFFFFFFFFFFFFFFFFFFF3E
:1002D000FFFFFFFFFFFFFFFFFFFFFFFFFFFFFFFF2E
:1002E000FFFFFFFFFFFFFFFFFFFFFFFFFFFFFFFF1E
:1002F000FFFFFFFFFFFFFFFFFFFFFFFFFFFFFFFF0E
:10030000FFFFFFFFFFFFFFFFFFFFFFFFFFFFFFFFFD
:10031000FFFFFFFFFFFFFFFFFFFFFFFFFFFFFFFFED
:10032000FFFFFFFFFFFFFFFFFFFFFFFFFFFFFFFFDD
:10033000FFFFFFFFFFFFFFFFFFFFFFFFFFFFFFFFCD
:10034000FFFFFFFFFFFFFFFFFFFFFFFFFFFFFFFFBD
:10035000FFFFFFFFFFFFFFFFFFFFFFFFFFFFFFFFAD
:10036000FFFFFFFFFFFFFFFFFFFFFFFFFFFFFFFF9D
:10037000FFFFFFFFFFFFFFFFFFFFFFFFFFFFFFFF8D
:10038000FFFFFFFFFFFFFFFFFFFFFFFFFFFFFFFF7D
:10039000FFFFFFFFFFFFFFFFFFFFFFFFFFFFFFFF6D
:1003A000FFFFFFFFFFFFFFFFFFFFFFFFFFFFFFFF5D
:1003B000FFFFFFFFFFFFFFFFFFFFFFFFFFFFFFFF4D
:1003C000FFFFFFFFFFFFFFFFFFFFFFFFFFFFFFFF3D
:1003D000FFFFFFFFFFFFFFFFFFFFFFFFFFFFFFFF2D
:1003E000FFFFFFFFFFFFFFFFFFFFFFFFFFFFFFFF1D
:1003F000FFFFFFFFFFFFFFFFFFFFFFFFFFFFFFFF0D
:10040000FFFFFFFFFFFFFFFFFFFFFFFFDEF9FFFF23
:1004100006480749091A8B10C90FC91810B54910A9
:1004200003D0044B002B00D0984710BDC8FEFF1F1F
:10043000C8FEFF1F00000000054B10B5002B03D0C5
:100440000449054800E000BFFFF7E2FF10BDC046C9
:1004500000000000C8FEFF1F342C000070B505002E
:100460000C1E08D0080002F0E0F92B680200210001
:1004700028005B68984770BD10B50400FFF7EEFFD9
:10048000200000F017FA10BD10B50E4C0E492000E8
:10049000FFF7E4FF20000D49FFF7E0FF00222000F6
:1004A000110000F013FA200000F004FA00210848BF
:1004B00000F010F9002803D120000649FFF7DCFF07
:1004C00010BDC046C4FDFF1F382800004B280000A7
:1004D000E0FEFF1F5C2800007047FFFF10B50323FC
:1004E00000220249024800F093F810BD20FDFF1FD2
:1004F000E0FEFF1FF8B5FA2701260021042000F0D6
:10050000D7FB032204201E4900F006FC1D4CFF000F
:10051000256801F0DBFE1C4A1378002B09D01B4B29
:100520001B78334205D01A49236809685B1A0E2BE1
:100530000CD8236812785B1B002A05D1154A934218
:1005400004D801F0C3FEE4E7BB42FAD9124C1349C8
:100550002000FFF791FF96211148890100F008F96A
:10056000104800F087F8002804D120000E49FFF75A
:1005700083FFFAE720000D49FFF77EFFF8BDC04674
:1005800089040000D40000206003002080030020C4
:1005900084030020EE020000C4FDFF1F722800004B
:1005A00020FDFF1FE0FEFF1F8828000092280000AA
:1005B00000207047704770B505000C00081E07D07A
:1005C00002F033F92B680200210028005B6898478D
:1005D00070BDFFFF70B50400C0680D0000280ED08C
:1005E000260061363378002B04D10849FFF7E3FF7A
:1005F00001233370E068290003681B689847A068EE
:10060000290003681B68984770BDC046A2280000F7
:1006100070B5040008000949002508312160FA215D
:100620006560A0602374E260490000F09BF923003C
:10063000613320001D705D7070BDC046C828000089
:10064000020070B55023040011320A21806800F0C6
:100650008BF9002223185A740500A06803689B696F
:1006600098470D2803D1A06803685B699847280064
:1006700070BDFFFF10B504000021007C00F0F6FA09
:100680000121207C00F014FB0A2000F0A5FB0021D2
:10069000207C00F00DFBFA20800000F09DFB200084
:1006A000FFF7CEFF2000FFF7CBFF200008491130F5
:1006B00002F072F8002809D0FA2000F08DFB20002B
:1006C000FFF7BEFF2000FFF7BBFF012010BDC046B3
:1006D000A8280000F8B504000D00A06803681B6995
:1006E0009847061E22D11449A068FFF764FFA76847
:1006F00029003200380000F0E9F8380000F0DAF89C
:100700002000FFF79DFF2000FFF79AFF20000B4914
:10071000113002F041F8002807D02000163001F017
:100720009BFF2D1A6B425D41E8B2F8BDA0680368DB
:100730005B699847D1E7C0465A280000C0280000EE
:1007400010B50368C9B21B68984710BD10B503689F
:10075000C9B21B68984710BD10B50368C9B21B68C1
:10076000984710BD10B50368C9B21B68984710BD03
:10077000084B10B504004808C01801F0C3FE00F093
:10078000CFFB054B1B78002B02D1200001F00CFEA3
:1007900010BDC04660E31600C0FDFF1F10B5080085
:1007A00000F0D8FC012010BD10B5080000F0D2FC0C
:1007B000012010BD70B508000D0002F036F80400ED
:1007C0000100280000F044FD200070BD10B51400A9
:1007D0000800110000F03CFD200010BD10B508001D
:1007E000110000F097FE10BD10B50800110000F0D8
:1007F0007DFE10BD10B500F0D9FD10BD10B508008C
:1008000000F0A6FC431E9841C0B210BD10B5080010
:1008100000F074FC431E9841C0B210BD10B5080032
:10082000110000F069FC10BD10B5080000F065FC77
:1008300010BD10B5080000F03DFC10BD10B500F073
:10084000FDFB10BD10B51400054B4808C01801F0A1
:1008500059FE00F065FB200000F0AEFB10BDC04665
:1008600060E3160010B500F079FD10BD10B500F082
:1008700033FD10BD10B500F01BFD10BD10B500F02C
:10088000F3FC10BD10B500F0FBFC10BDF8B507007F
:100890000C000E1E03D000268D18A54201D1300099
:1008A000F8BD3B68217838001B689847013436183A
:1008B000F3E7FFFF07B5044B01A90B800368022291
:1008C0005B6898470EBDC0460D0A00000B000F2163
:1008D000F0B587B00192154E02AA89181D0C754318
:1008E000AFB2BC469CB201347443220CA4446244AF
:1008F0002C0C6519140C64190A251A0063085D4351
:10090000521B0C00303201390A70002BE6D1019BDA
:10091000002B03D02D2301390B70A11ECA4306AB57
:10092000D21803685B68984707B0F0BD3333000006
:1009300073B504000A4D2B680093009E23682000C5
:100940005B69984700280ADA01F0C0FC2B68A268AE
:100950000193019B9B1B9342F0D30120404276BD43
:10096000D400002081607047F7B506000F00150025
:100970001C00002A1AD0002B13D00024013B009346
:100980002B190193009B9C4208D23000FFF7D0FF47
:10099000874203D0002806DA012333730023019A2B
:1009A00013702000FEBD28550134E9E71400F8E774
:1009B00010B5FFF79FFDFFF78FFD01F087FCFAE709
:1009C00070B580258026ED02F6000B4C23682B4283
:1009D00001D000F017FF2368334201D000F016FA6F
:1009E00023681B0501D500F0F7FC2368DB04ECD578
:1009F00000F09EFDE9E7C0463480044010B5FFF7E3
:100A0000DFFFFFFF0022014B1A60704700810440A6
:100A10007047FFFFEFF31380002821D1EFF310831D
:100A2000002B19D1EFF30582002A16D00F2A0BD91B
:100A30001300103B0C499B089B005B1803210A40E4
:100A40008A401B68D340DBB2EFF31182002A02D048
:100A5000934200D913001800704780235B00F3E72E
:100A600001204042F8E7C04600E400E0F8B5060087
:100A70000D00170000243900300001F0C9FDCAB292
:100A800013003733DBB2092901D83032D3B2220048
:100A90002B55B74202D806000134ECE700212B1990
:100AA00059702B00111BA14201DB2800F8BD1978F9
:100AB000285D187029550133013CF3E77047FFFFAB
:100AC000064B70B51C68064D1C60EB68A20700D58C
:100AD00098472B69640700D5984770BDA0900440E3
:100AE00034FDFF1F244B70B51D68244C1D60636AE4
:100AF0002A0700D59847A36AEA0600D59847E36A13
:100B00006A0600D59847236B2A0600D59847636B81
:100B1000AA0600D59847E36BEA0700D59847A36D6E
:100B2000AA0700D59847E36D6D0700D59847144B89
:100B30001D681D60A368EA0700D5984763692A0607
:100B400000D59847A369EA0600D59847E3696A0784
:100B500000D59847236A2A0700D59847A36BAA07B0
:100B600000D59847236DAA0600D59847636D6D069A
:100B700000D5984770BDC046A0B0044034FDFF1FAB
:100B8000A0C004407047FFFF8022224BD20513B55E
:100B90001A608022002012061A601F4B1F4918603D
:100BA0001F4B204A1960282313601F4A1F4C1360F3
:100BB0001F4A13601F4A13601F4A13601F4A1360C5
:100BC000092222601E4C20601E4C21601E4C2360B6
:100BD0001E4C23601E4C22601E4C20601E4801608B
:100BE0001E490B601E490B601E4B1A6001F0FCFB96
:100BF000FFF7C8FF1C4C23680093009B132BFAD906
:100C000001F010F996235B0022680192019A9A4242
:100C1000FAD313BD00E100E004800340FFBF0000F1
:100C2000088003400C800340148003400080034090
:100C30001C800340248003402C8003403480034008
:100C400004900340089003400C900340149003402C
:100C50000090034004A0034008A003400CA0034000
:100C600014A0034000A00340D4000020020010B5EF
:100C70001A280BD80C2353430C481A58C018147D5B
:100C8000037A234205D0002901D0137110BD1372DD
:100C9000FCE74368002904D0032219680A431A605C
:100CA000F4E702211A688A43F9E7C0465029000098
:100CB000030010B51A281BD80C205843154A1418E5
:100CC00082586368107D247A012901D0042910D14B
:100CD00020431075A22252001A60253AFF3A0429D7
:100CE00003D119680A431A6002E019689143196038
:100CF00010BDA04310758022002908D0022902D11E
:100D00000422FF32EFE700220329ECD181225200B6
:100D1000E9E7C04650290000F8B504000E001A2883
:100D200028D8042A26D8144B9F5C0C224243134B2C
:100D30003F049B185D68E0232A68DB00110019401E
:100D40001A4201D1FFF7B4FF0D4B0E491A00B83219
:100D500011600D4ABC331A6072B60C4A2B68A400AD
:100D600013402B601F430A4BE65080235B041F4354
:100D70002F6062B6F8BDC046482900005029000027
:100D800000F9FF1FC10A0000E50A0000FFFFF0FFA5
:100D900034FDFF1F72B60B4B19680B4B1A680B4BD7
:100DA0001B6862B65B0102D5322900D90132084BBB
:100DB00008485B1A5843FA239B005343800DC01820
:100DC0007047C04618E000E0D400002004ED00E0C9
:100DD0007FBB00005555010070B50400FFF7DAFF36
:100DE0000500002C10D0FA26B600FFF7D3FF401BF9
:100DF000B04202D201F06AFAF7E7013C002C03D0BE
:100E0000FA239B00ED18F0E770BDFFFF37B5354AB8
:100E100013799B0613D5344D3448D1792B7800686B
:100E200001338342804103403148C9B2007898427F
:100E300005D03F2B38D82F48C154DBB22B70D37864
:100E4000DCB25BB2002B0CDA13795BB2002B08DA50
:100E5000294B2A481D780178CBB28D422BD16C23C7
:100E6000D37040231C421ED0117919421BD000219F
:100E7000234B1970234B1B688B4202D022490978FF
:100E80001972224B1B78002B0BD072B6202193795C
:100E9000DBB20193019B8B430193019BDBB2937106
:100EA00062B62C23D37037BD1C001948403C006843
:100EB00000190170C1E7174D591C2D688D4209D9E1
:100EC0003F2909D8144B5B5CDBB2DBB2C9B2D371EA
:100ED0000170C6E70021F5E7104D3F3B2D68EB1888
:100EE0001B78F1E700A0064019010020A0FDFF1FBC
:100EF00020010020D900002069010020700100209D
:100F0000280100202401002021010020D800002019
:100F10001C010020A4FDFF1F290100206C010020FE
:100F20008023184A1B0111680B4313600023164AE3
:100F30001370164A1370164A1370164A1370164A25
:100F40001370164B164A1A60164B31321A6000287D
:100F500000D10130144BC204D20E1A700022C0B26C
:100F6000587012499A702C32DA700A68104B1A4085
:100F70008023DB01134380220B600E4B92011A6029
:100F80007047C04634800440B8010020C0010020F2
:100F9000F1010020F8010020C80100200CB004403D
:100FA0001303000010B0044000B006400CE400E061
:100FB000FF00FFFF00E100E0132110B51B4B9A7802
:100FC0008A43103901400A43410701D510210A43E1
:100FD0009A700F220240042A03D199793C320A43C5
:100FE0009A7110215A798A43084200D00A4310218D
:100FF0005A719A798A43840600D50A439A71C205C8
:1010000006D520215A781C78D2B2214319705A7023
:101010000022800507D5A0219A780A439A70044AD5
:10102000044B1A600122044B1A7010BD00B0064038
:101030001303000010B0044071010020134B10B5E1
:101040001B681B0502D410BD01F040F9104B1A7843
:10105000D3B2002AF8D180210E4A890111600421FF
:101060000D4A0E48FF31D37001600D4801601179BF
:10107000D2790C4A13700C4A13700C4B1B68002B6E
:10108000E1D00B4A12781A71DDE7C0463480044083
:10109000C801002080E100E000B006400CB0044030
:1010A00010B00440B8010020C001002074010020ED
:1010B0007201002070B504000B4A1378DDB2002BDA
:1010C000FBD120000121FFF7F3FD29002000FFF7ED
:1010D000CDFD0C226243054B0549D0589B18086092
:1010E0001B7A04490B7070BDC80100205029000014
:1010F000C4010020C101002070477047104B8022BE
:10110000196812010B0070B51340114212D00D4C3A
:101110001A2811D80C2242430B4B0C4DD1589B1866
:101120001B7A216001212B70FFF7C2FD23682A780A
:101130001A720123180070BD00232360FAE7C0462D
:101140003480044074010020502900007201002006
:1011500000207047F0B5334B85B01B6801901B052C
:1011600031D5314B1B68002B02D0304A12781A71EE
:101170002F4B1B78002B0CD072B62E4A9379DBB222
:101180000393202303990B430393039BDBB29371D7
:1011900062B6294E294F34783B6801349C429B410A
:1011A0001C40274D2B78A3420FD06B461B79272C70
:1011B00031D8244A13550122234BE4B21A701D4B37
:1011C000AB323470DA7005B0F0BDFFF723FC402875
:1011D0001CDC18490B795BB2002BE2DA2B783A68F9
:1011E000D8B20133934209D2272B09D8154AD25CD1
:1011F000D2B2D2B2DBB2CA712B70D2E70023F5E7CC
:10120000124A2738126812181278F1E7FF28C8DD51
:1012100001F05CF8C5E721000C4A28391268521821
:101220001370C8E734800440C4010020C1010020CD
:101230007101002000B00640F1010020B0FDFF1F49
:10124000F8010020C9010020C8010020F40100209D
:1012500070B504004518AC4200D170BD2078FFF78E
:1012600079FF0134F7E7FFFF10B5044B1B78002B23
:1012700000D110BD01F02AF8F7E7C046C8010020F0
:10128000084B1978084BC8B21B78DAB2994205D3DB
:10129000064B1B68013B9B18181A7047013A101A3D
:1012A000FBE7C046F1010020F8010020B0FDFF1F60
:1012B000064B074A19781278CBB2D0B2914201D3CB
:1012C000181A7047034A12689B18F9E7B801002002
:1012D000C0010020ACFDFF1F30B5184B184D1A7827
:1012E0002B78D4B2D9B29A4225D0164A4B1C126838
:1012F0009A4215D93F2B15D81349C85CD9B2297029
:101300001249C0B20968002909D09C4210D3E31ADF
:101310000F4A1268934202D80E4B1B780B7230BDF5
:101320000023E9E70C483F39006841180878E5E7F1
:101330001219D31AECE701204042F0E7B80100206F
:10134000C0010020ACFDFF1F7801002074010020C7
:10135000A8FDFF1F72010020BC0100200E4B197870
:101360000E4B1A78D3B2914212D00D495A1C09681B
:10137000914205D93F2A05D80A4B985CC0B2704704
:101380000022F9E7084A3F3B1268D3181878F5E7BE
:1013900001204042F3E7C046B8010020C001002010
:1013A000ACFDFF1F78010020BC010020064B074A5E
:1013B0001B78DBB21370064B1B68002B02D0054A6A
:1013C00012781A727047C046C0010020B801002090
:1013D000740100207201002037B5354A13799B064D
:1013E00013D5344D3448D1792B78006801338342CA
:1013F000804103403148C9B20078984205D03F2B64
:1014000038D82F48C154DBB22B70D378DCB25BB232
:10141000002B0CDA13795BB2002B08DA294B2A482F
:101420001D780178CBB28D422BD16C23D370402331
:101430001C421ED0117919421BD00021234B197078
:10144000234B1B688B4202D0224909781972224B28
:101450001B78002B0BD072B620219379DBB201935D
:10146000019B8B430193019BDBB2937162B62C23EA
:10147000D37037BD1C001948403C0068001901704A
:10148000C1E7174D591C2D688D4209D9272909D864
:10149000144B5B5CDBB2DBB2C9B2D3710170C6E73F
:1014A0000021F5E7104D273B2D68EB181B78F1E77D
:1014B00000B00640B8010020ACFDFF1FC0010020B5
:1014C00078010020F1010020F8010020C80100206F
:1014D000C4010020C101002071010020BC010020D6
:1014E000B0FDFF1FC9010020F4010020064B186069
:1014F0004023002801D00B004033044A1A31136006
:10150000034B19607047C046BC010020ACFDFF1FB3
:10151000A8FDFF1F044B18602823002801D00B00F2
:101520002833024A13607047F4010020B0FDFF1F0A
:1015300073B5404A13799B0624D53F4E3F49D07975
:101540003378096801338B42A44123403C4CC0B23C
:1015500024789C4205D03F2B4AD83A4CE054D8B26C
:1015600030703948006800280CD0384C2578ECB22F
:10157000AB4244D31B1B364909688B4202D3354B1F
:101580001B780371D378DCB25BB2002B0CDA1379D1
:101590005BB2002B08DA304B2C481D780178CBB2B7
:1015A0008D422FD16C23D37040231C421FD0117960
:1015B00019421CD00021294B1970294B1B688B4202
:1015C00003D02849097819721972274B1B78002B10
:1015D0000BD072B620219379DBB20193019B8B4330
:1015E0000193019BDBB2937162B62C23D37073BD60
:1015F0001D001E4C403D246864192070AFE7091B94
:10160000CB18B8E71A4D591C2D688D4209D92729E6
:1016100009D8184B5B5CDBB2DBB2C9B2D371017085
:10162000C2E70021F5E7144D273B2D68EB181B7826
:10163000F1E7C04600C0064040020020B8FDFF1F91
:101640004802002000020020FC010020800200204F
:10165000B4FDFF1FFA010020790200205002002093
:101660004C02002049020020F90100204402002021
:10167000BCFDFF1F510200207C0200207047FFFFCD
:101680000223F0B50A4C0B4E2578C8272B43DB000C
:10169000F218506008480278002A00D1403F09043F
:1016A0003943F15001235A406B4002702370F0BD62
:1016B0000403002000F8FF1F05030020431E10B59F
:1016C0000020032B0ED872B6074A990088580028CC
:1016D00007D044685B008C50044A0488995A091B5F
:1016E000995262B610BDC046140300206203002068
:1016F000431E0020032B06D872B6054A9B009B5858
:10170000002B01D162B670475B680130F8E7C04634
:101710003C030020F8B572B6042208250126154CBA
:10172000154B2178294219D0D100CF58002F0AD16A
:101730005A1808305060114A5A50114A1378013B28
:10174000137062B6F8BD31001143C900CF58002FA5
:1017500004D15A18083050600A4AEDE704320134C7
:10176000142ADED162B60022054B1A7000F0F4FB99
:10177000E8E7C046142B000000F8FF1F8800400077
:101780006A030020C8004000421E10B5032A2BD86F
:101790000223800003431748DB001B1872B6164C67
:1017A000A05C032817D800F0A3FE23100213052025
:1017B000A0540A000832C8205A601A0700D44038E2
:1017C0000A88120402431A600DE002200833EFE792
:1017D00004200833ECE7094892001458084B002C09
:1017E00003D11150995062B610BD98584160F9E785
:1017F0000320DDE700F8FF1F5C0300203C0300200E
:101800004C030020F0B585B00422C34B1B78DCB23A
:1018100013421DD0C14B1B78002B16D0C04A117843
:10182000CBB2002905D0013BDBB21370002B00D1F5
:1018300000BEBC4A1178CBB2002906D0013BDBB216
:101840001370002B01D100F0EDFC0422B24B1A7092
:101850000822082322401C4200D16CE2B24BB34C58
:101860001E78F3B23509B608F600002D00D0F8E175
:10187000A619336871689B061B0F092B00D1C6E1BE
:101880000AD8013B012B00D8A6E10122A84B1A700F
:101890000822A14B1A70B7E70D2BF6D10A684868E9
:1018A000A44BA5491A6001935860A44B3360A44B24
:1018B000A44E1D6001230B7091B22561A561B14258
:1018C00047D8D023DB00994200D363E181235B003A
:1018D000994200D1FEE00CD8802900D1DDE08229B8
:1018E00000D1E0E00F22984B1A700122904B1A7041
:1018F000CBE7964B994200D1FCE0A022D200002316
:101900001C009142EED1019AD5889D4200D91D005C
:101910002F00402D00D9402739002000FFF7B0FEEE
:10192000EE1BBD4201D13F2DDFD93500E419402E19
:1019300000D9402520002900FFF7A2FE6419721B80
:10194000AE4201D13F2ED0D97D4B1C60804B1A8016
:10195000CBE7804EB142C8D03BD8882000018142FD
:1019600000D195E090231B019942BBD1042580262C
:101970006A4B120CD2B21A70EB00E258324204D019
:10198000E3185868083800F0E7FA0135142DF3D150
:101990000027714B714E724D0093306800281ED1A4
:1019A000BB0003936F4BBA003060D050286800280A
:1019B0001BD16D4B039A2860D0506C4B7A00D052EB
:1019C000009B18780238032818D800F091FD1451B4
:1019D0001451674B994200D1F2E0664A8FE74368A1
:1019E000029300F0B9FA0298D8E74368029300F036
:1019F000B3FA0298DBE70023009A1370009B0137CB
:101A00000133043600930435042FC6D100225A4B0B
:101A10005A4F5B4D1A703B785A4A2B700435AE18FA
:101A20000822134215D000F077FAF300002823D0E3
:101A3000E21808305060544AE25000F06DFA012379
:101A40003343DB0000281DD0E218083050603B4AC9
:101A5000E250022300223343DB00E25003233343EE
:101A6000DB00E250494B01379D42D4D1002350E0C6
:101A70000122009B1A70C1E73F4AE05013780133FE
:101A80001370DAE73C4AE050137801331370E0E753
:101A9000224A3F4C1278227035E700233C4C2370D9
:101AA000637002332FE77F230340042B00D919E72B
:101AB0000021374A9B0011705170234914005B18B4
:101AC000022118780B00084200D11CE7013B13707B
:101AD0000B0018E77F230340042B00D902E7120C08
:101AE00000D0FFE60221184A9B009B181A788A430F
:101AF0001A70BBE77F210140042900D9F2E6130CDC
:101B000000D0EFE68A0010495218022110780143F4
:101B100011701C00F7E6C0468020074060030020DB
:101B200061030020880300209020074000F8FF1F79
:101B3000942007403403002005030020C800400023
:101B40000803002081060000C020074002030000B7
:101B500006030020212000005C0300201403002065
:101B60003C030020240300204C03002062030020DB
:101B700021220000212300006A030020142B000012
:101B8000C42007403CDFF8BF88004000D420074055
:101B90000C030020864B120C80B25C68002C00D134
:101BA000A0E61988914209D15D88854206D1090ACB
:101BB000032901D12378A6E61B89A4E60C33ECE7C0
:101BC00080B2002800D051E77A4B120C19687A4B8A
:101BD000D2B21960794B8BE7794B7A4A18889042D8
:101BE00012D19B88002B0BD1774AC85CD0540133AB
:101BF000072BFAD11368862B02D10F22734B1A7070
:101C000000210800FFF73CFD714B33603DE6714F4A
:101C10003C68002C19D0704B1D8800932E00402D7D
:101C200000D9402620003100FFF72AFDA4192B1C03
:101C3000402D00D94023009AEB1A9BB21380002B51
:101C400002D13F2D00D81C003C60A0225C4BD2008A
:101C50001988914200D018E600225A709A785F4B9A
:101C600045E608220821A4196068013D0838EDB254
:101C70001A400B4235D000F06FF95949A80042587C
:101C8000584B002A1CD0566846501100585D083148
:101C90006160032805D800F02BFC020D0F11032111
:101CA0005955C821230700D4403913881B040B431E
:101CB0002360EDE50221F3E70521F1E70421EFE7D9
:101CC000595D02290BD000D8E2E50122032906D094
:101CD00008221440621E944102345C55D8E55A55DE
:101CE000D6E52368190C0B1E018014D03E4E4280AD
:101CF0004260AA0097593D49002F13D19051885056
:101D00003B4A6D00A95A5B18AB5200F005F9002858
:101D10000BD00830606040222307DB171340354AA0
:101D20009B18C5E78E587060E9E7334A2060137846
:101D300001331370ACE50120044220D002232F4967
:101D40002C4C0B702E4B2F4D1A702F4B1C605D606E
:101D50009C602E4CDC600D241A619A612C4B1C7027
:101D6000FF232C4C23702C4C23701C4C22702B4ACC
:101D700013709F222A4B1A70087005B0F0BD63B231
:101D8000002B05DA0D22224B1A708023224A137091
:101D90000222144205D01F490B78DBB20B701E4B98
:101DA0001A7010231C42E8D01B4A1370E5E7C046A6
:101DB000C02A0000D40000208403002080030020FB
:101DC000340300202120000078030020610300205C
:101DD000C8004000080300200603002098200740A8
:101DE0003C0300205C030020140300202403002097
:101DF00062030020880040006A030020942007400E
:101E0000040300208402002000F8FF1FC402002009
:101E1000C020074088200740802007408C200740D2
:101E20008420074010B500F029FB002210001A4B57
:101E3000D100C850013259184860142AF8D18022C4
:101E40001649D2020C6822430A6015491A0AD2B216
:101E50000A7014491A0CD2B20A70134A1B0E13707E
:101E6000FF23124A12491370124A1370124A137058
:101E700001220A701149087011490A7011490A6853
:101E80009A438F3B134380220B600F4B52041A601E
:101E900010220E4B1A7010BD00F8FF1F3480044052
:101EA0009C200740B0200740B42007408020074016
:101EB0009420074088200740102007400021074059
:101EC0008420074018E400E000E100E0082107401A
:101ED00010B500F0C5F810BD10B500F08DF810BDBC
:101EE00010B500F061F810BD10B500F0A3F810BDFA
:101EF00010B500F069F910BD10B500F03FF910BD44
:101F000010B50800110000F0C5F810BD10B50800AC
:101F100000F02AF910BDFFFF70B572B60C4D2C68A9
:101F2000200000F07BFB03000B2802DD62B60020DE
:101F300070BD80221206C24094432C6062B64820D5
:101F40005843044BC018002303604360F0E7C046C9
:101F5000D4FDFF1FC0F9FF1FD8220F4B10B5C31AC5
:101F60009200934209D20D4A1278002A06D00C4AF8
:101F70001278002A02D0FFF7CDFB10BD72B64821BF
:101F8000180000F0BFFA80231B06C340054C2268EE
:101F90001343236062B6F0E7C0F9FF1F6A03002015
:101FA00060030020D4FDFF1F70B5114C2368002B87
:101FB0000CD020684388C218157A028801339A42EF
:101FC00013D8FFF7C9FF0023236005E0094B1B78F6
:101FD000002B03D101256D42280070BD0320FFF7BF
:101FE0006DFB20600028E4D1F4E74380F4E7C046AD
:101FF0006C0300206003002010B50C4C2368002BFC
:1020000005D02368002B0DD10120404210BD084BA4
:102010001B78002BF8D00320FFF750FB206000282E
:10202000EFD1F1E75A889B18187AEFE76C0300208C
:102030006003002010B5084B9C88084B1A68002AE2
:1020400003D0138852889B1AE418002C01D100F0A9
:102050003DF9200010BDC046620300206C03002043
:1020600010B50A4B1B78002B0FD0094C20680028B4
:1020700003D0FFF771FF002323600320FFF71EFB4F
:10208000002802D0FFF768FFF7E710BD60030020CB
:102090006C0300200123F7B50C002D4D0090019139
:1020A0002B70002C02D101982C700CE0294E336863
:1020B000002B23D1284F294B1B78DAB2002B03D1F8
:1020C0002A7001204042FEBD0420FFF711FB0728C3
:1020D00007D801232B70FFF71FFF306000280DD1B8
:1020E0002870013F1E4B002F02D01A78002A02D020
:1020F00001221A70E5E700F0E9F8DCE70022184B4E
:1021000031681A7040234A889B1AA34200D92300E1
:10211000080008308018D2184A800022E41A93423E
:1021200010D1009AD31800934B883F2B06D9402337
:1021300004200B80FFF728FB002333600522094BA6
:102140001A70AEE7009FBF5C87540132E7E7C046D4
:102150007103002074030020097500006003002053
:10216000700300208803002007B56B46D871073341
:1021700001211800FFF78EFF0EBDFFFF012370B590
:102180000E4C0F4D23702B68002B10D10D4B1B787C
:10219000002B02D10020207070BD0420FFF7A8FAA8
:1021A0000728F7D8FFF7B8FE28600028F2D04020B3
:1021B0002B685B88C01A00232370EDE771030020B1
:1021C0007403002060030020F7B5124B1B78002B2E
:1021D00014D00126104F114B3C68114D01931E7015
:1021E000002C0CD000262E70638821000420238050
:1021F000FFF7CAFA3E600023019A1370F7BDFFF79C
:102200008BFE011E04D004202C70FFF7BDFAF2E70C
:102210002E70F0E76003002074030020710300209B
:102220008803002070B50E4B1B78DDB2002B09D15E
:102230000C4C2168002906D04B8804200B80FFF746
:10224000A3FA256070BDFFF767FE011E03D00420CE
:10225000FFF79AFAF6E70122034B1A70F2E7C0463D
:10226000710300207403002088030020144970B516
:102270000B68002B0CD0EFF30583002B08D1EFF394
:10228000108272B60868002803D1002A00D162B615
:1022900070BD0C4C2578002DF7D1012323704369C4
:1022A0000B60002B09D09D61002A00D162B6002589
:1022B0008368457798472570EAE703490B60F3E7A1
:1022C0008C030020980300209C030020F8B51B4DD0
:1022D0002A78002A1FD01A4E3478002C1BD10123F3
:1022E00033701A420DD0FFF7A5FE002801D000F090
:1022F000C3F8144A2B781278002A02D001229343A3
:102300002B702B789B0714D4002333702B785B073A
:1023100001D5FFF7ABFFF8BD0B4BA200D7583B68C8
:1023200038001B699847002801D03B699847013461
:10233000E4B2064B1B78A342EED8E5E7D8FDFF1FB9
:1023400089030020BC2A0000A0030020AC03002069
:1023500010B5EFF3108172B60B4B186800280FD040
:1023600042691A6000239A4207D09361002900D184
:1023700062B6437783689847EBE7044A1360F5E752
:10238000002900D162B610BD940300209003002004
:1023900010B5FFF7DDFF10BD024A1368013313606B
:1023A0007047C046D40000200C4970B500220D00D3
:1023B0000B4C2378934209D15A1C9B00E85002230E
:1023C0002270084A11780B43137070BD04310E1F40
:1023D00036688642F9D00132D2B2EBE7A003002082
:1023E000AC030020D8FDFF1F1B4B1C4A19781C4B67
:1023F000082915D10021116013221A60194B1A788F
:10240000194B002A18D000221A60184B1A78184B62
:10241000012A13D880221A600122164B1A707047C5
:102420000A2901D12E31E6E70C2903D128311160A8
:102430001222E2E73C21FAE70122E5E7042A01D86B
:102440008422E8E7082A01D88522E4E7102A01D887
:102450008622E0E78722DEE7D9FDFF1F08B00340B0
:102460000CB00340AD03002020B00340DAFDFF1F95
:1024700024B00340AE0300207047FFFF1FB572B6C3
:1024800070234121144A1370144B1970144B3239C4
:1024900019708023137013785BB2002BFBDA114B99
:1024A000186862B6104B984201D80A23584301AC11
:1024B0000A222100FEF7DAFA00220C49A05C130080
:1024C0000132002804D05300C8520A2AF6D1130062
:1024D00001335B000B701FBD00000240070002408B
:1024E00006000240080002407F96980062FEFF1F2F
:1024F00002B4714649084900095C49008E4402BC97
:102500007047C046002243088B4274D303098B42B4
:102510005FD3030A8B4244D3030B8B4228D3030CB3
:102520008B420DD3FF22090212BA030C8B4202D355
:102530001212090265D0030B8B4219D300E0090A7D
:10254000C30B8B4201D3CB03C01A5241830B8B4286
:1025500001D38B03C01A5241430B8B4201D34B036F
:10256000C01A5241030B8B4201D30B03C01A5241D4
:10257000C30A8B4201D3CB02C01A5241830A8B4259
:1025800001D38B02C01A5241430A8B4201D34B0242
:10259000C01A5241030A8B4201D30B02C01A5241A6
:1025A000CDD2C3098B4201D3CB01C01A524183095A
:1025B0008B4201D38B01C01A524143098B4201D394
:1025C0004B01C01A524103098B4201D30B01C01ABF
:1025D0005241C3088B4201D3CB00C01A5241830839
:1025E0008B4201D38B00C01A524143088B4201D366
:1025F0004B00C01A5241411A00D2014652411046C6
:102600007047FFE701B5002000F006F802BDC046A4
:102610000029F7D076E770477047C0461C21012398
:102620001B04984201D3000C10391B0A984201D3B5
:10263000000A08391B09984201D30009043902A293
:10264000105C40187047C0460403020201010101FA
:10265000000000000000000010B50A22002100F078
:1026600087F810BDF0B587B01E0005900191029269
:10267000012B48D00B00242E45D83B4A0821944614
:102680001A00604614780133005D1D0007000F40FA
:102690000842F5D12D2C3DD101271C78951C002E28
:1026A0005ED0102E09D1302C07D120222B789343F5
:1026B000582B50D110266C7802352C4B3100FB186A
:1026C00018000393FFF7A4FF002204910121844620
:1026D000100049422300303B092B03D9113B192B31
:1026E0001DD80A339E421EDD541C09D00A008445C1
:1026F00006D302D1049C9C4202DB012270431818CD
:102700002C780135E6E700F05DF816230360002021
:1027100007B0F0BD2B2CC2D11C78951CBFE723005D
:10272000613B192BDDD9531C09D12223059A03984B
:102730001360029B002BEBD06B1E019307E0002F70
:1027400000D04042029B002BE2D0002AF4D1029B31
:10275000019A1A60DCE73024002EAED10836ACE7CF
:10276000302CA2D00A26A8E7192B0000FFFFFF7F1C
:1027700010B5044C13000A0001002068FFF772FF37
:1027800010BDC046C4FEFF1F03008218934200D153
:10279000704719700133F9E70A7830B5002A0CD177
:1027A00030BD9A4208D10123CC5C002CF8D0C55C26
:1027B000A54201D10133F7E701300378002BF0D1B6
:1027C0001800EDE7014B18687047C046C4FEFF1FB4
:1027D00070B500260C4C0D4D641BA410A64209D107
:1027E000002600F01BFA0A4C0A4D641BA410A642F6
:1027F00005D170BDB300EB5898470136EEE7B30042
:10280000EB5898470136F2E7282C0000282C0000EE
:10281000302C0000282C0000002310B59A4200D173
:1028200010BDCC5CC4540133F8E70023C25C013313
:10283000002AFBD1581E7047506C6179696E672081
:1028400046697273742046696C65000A506C617940
:10285000696E6720747261636B2023004661696C46
:10286000656420746F20706C617920747261636B91
:102870003F00416461667275697420536F756E64C0
:1028800020426F61726421004E6F7420666F756E16
:10289000640053465820626F61726420666F756EE3
:1028A00064002D2D2D3E20004164616672756974AF
:1028B00020465820536F756E6420426F6172640029
:1028C000706C617900FFFFFF000000000000000055
:1028D000D50500008D080000B1050000B505000019
:1028E0000000000000000000A9070000CD07000064
:1028F000850800007D080000750800006D080000D4
:102900006508000071070000450800003D08000050
:1029100033080000290800001D0800000D08000011
:10292000FD070000F5070000E9070000DD070000D3
:10293000410700004D07000059070000650700002F
:10294000B50700009D070000080C0A090BFFFFFFF8
:10295000420000F840A0044001000000420000F8DE
:1029600044A0044002000000C00000F800C0044081
:1029700001000000000000F8049004400200000084
:10298000000000F80890044004000000C00000F8B7
:102990001CC0044080000000C00000F810C00440CB
:1029A00010000000C00000F808C00440040000004F
:1029B000C00000F80CC0044008000000800000F8CF
:1029C0000CB0044008000000800000F810B0044083
:1029D00010000000800000F818B004404000000023
:1029E000800000F81CB0044080000000800000F867
:1029F00014B0044020000000C00000F804C00440EF
:102A000002000000800000F800B004400100000057
:102A1000400000F800A0044001000000400000F861
:102A200004A0044002000000400000F80CA0044094
:102A300008000000400000F808A004400400000066
:102A4000C00000F814C0044020000000C00000F8DE
:102A500018C0044040000000800000F804B00440AA
:102A600002000000800000F808B0044004000000EC
:102A7000020100F850D0044010000000020100F8EC
:102A800054D0044020000000030100F878D0044036
:102A90004000000000000000000000000D1F0000CA
:102AA000011F0000F91E0000F11E0000E91E0000D9
:102AB000E11E0000D91E0000D11E000000FFFFFF34
:102AC000000100001EFEFF1F1200000000020000B7
:102AD000DBFDFF1F430000000003000030FEFF1F6E
:102AE000000000000103090434FEFF1F0000000085
:102AF000020309044CFEFF1F000000000303090449
:102B000062FEFF1F00000000000000000000000047
:102B10000000000000151915002020202020202092
:102B2000202028282828282020202020202020207D
:102B3000202020202020202020881010101010108D
:102B400010101010101010101004040404040404D9
:102B50000404041010101010101041414141414173
:102B60000101010101010101010101010101010155
:102B70000101010110101010101042424242424265
:102B80000202020202020202020202020202020225
:102B900002020202101010102000000000000000CD
:102BA0000000000000000000000000000000000025
:102BB0000000000000000000000000000000000015
:102BC0000000000000000000000000000000000005
:102BD00000000000000000000000000000000000F5
:102BE00000000000000000000000000000000000E5
:102BF00000000000000000000000000000000000D5
:102C000000000000000000000000000000000000C4
:102C1000000000000000000000FFFFFFF8B5C04604
:102C2000F8BC08BC9E46704739040000DD04000073
:042C3000F8B5C046ED
:102C3400E828000000000000E80300000000000095
:102C44007D160000BD0A0000BD0A0000BD0A000098
:102C5400BD0A0000BD0A0000BD0A0000BD0A000054
:102C6400BD0A0000BD0A0000BD0A0000BD0A000044
:102C7400BD0A0000BD0A0000BD0A0000BD0A000034
:102C8400BD0A0000BD0A0000BD0A0000BD0A000024
:102C9400BD0A0000BD0A0000BD0A0000BD0A000014
:102CA400BD0A0000BD0A0000BD0A0000BD0A000004
:102CB40040000000400000001A0000004000000036
:102CC4002800000028000000400000002800000048
:102CD400010000009C2A000000000000E80300003E
:102CE40000000000FFFFFFFF010A04090243000285
:102CF4000100C032090400000102020100052400A1
:102D04001001052401010104240206052406000122
:102D14000705820310004009040100020A000000B4
:102D24000705030240000007058402400000120169
:102D3400100102000040C016830473020102030163
:102D44000403090418035400650065006E00730051
:102D540079006400750069006E006F001603550069
:102D640053004200200053006500720069006100B6
:102D74006C000C03000000000000000000000000D4
:102D8400000000000000000000000000B00300206C
:102D9400180400208004002000000000000000004F
:102DA400000000000000000000000000000000001F
:102DB400000000000000000000000000000000000F
:102DC40000000000000000000000000000000000FF
:082DD4000000000078FEFF1F63
:00000001FF
